:1000000000400820E90E000000000000D70E0000AC
:10001000D50E0000D50E0000D50E00000000000037
:10002000000000000000000000000000D50E0000ED
:10003000D50E000000000000D50E00008910000061
:10004000D50E0000D9160000D50E0000D50E000018
:10005000ED160000513200006132000071320000E4
:1000600075320000D50E0000E5260000F5260000E0
:1000700005270000B52D0000B72D0000B92D0000A8
:10008000D50E0000D50E0000D50E0000D50E0000E4
:10009000D50E0000D50E000055350000D50E00002D
:1000A00071470000D50E00000D340000D50E000091
:1000B000D50E0000D50E0000D50E0000D50E0000B4
:1000C000D50E000070B54FF0FF0C4CF4E06C1CEA4C
:1000D00011541DBF1CEA135594EA0C0F95EA0C0F3E
:1000E00000F0DEF82C4481EA030621EA4C5123EAB1
:1000F0004C5350EA013518BF52EA033541F48011E0
:1001000043F4801338D0A0FB02CE4FF00005E1FB92
:1001100002E506F00042E0FB03E54FF00006E1FBDC
:1001200003569CF0000F18BF4EF0010EA4F1FF041F
:10013000B6F5007F64F5407404D25FEA4E0E6D415F
:1001400046EB060642EAC62141EA55514FEAC52070
:1001500040EA5E504FEACE2EB4F1FD0C88BFBCF5EC
:10016000E06F1ED8BEF1004F08BF5FEA500E50F19D
:10017000000041EB045170BD06F0004646EA010163
:1001800040EA020081EA0301B4EB5C04C2BFD4EB95
:100190000C0541EA045170BD41F480114FF0000E8E
:1001A000013C00F3AB8014F1360FDEBF002001F0FC
:1001B000004170BDC4F10004203C35DA0C341BDC76
:1001C00004F11404C4F1200500FA05F320FA04F048
:1001D00001FA05F240EA020001F0004221F000417C
:1001E00010EBD37021FA04F642EB06015EEA430EEF
:1001F00008BF20EAD37070BDC4F10C04C4F120051F
:1002000000FA04F320FA05F001FA04F240EA0200D1
:1002100001F0004110EBD37041F100015EEA430EA2
:1002200008BF20EAD37070BDC4F1200500FA05F2C2
:100230004EEA020E20FA04F301FA05F243EA020341
:1002400021FA04F001F0004121FA04F220EA020050
:1002500000EBD3705EEA430E08BF20EAD37070BD96
:1002600094F0000F0FD101F00046400041EB010176
:1002700011F4801F08BF013CF7D041EA060195F058
:10028000000F18BF704703F00046520043EB030312
:1002900013F4801F08BF013DF7D043EA06037047FF
:1002A00094EA0C0F0CEA135518BF95EA0C0F0CD00A
:1002B00050EA410618BF52EA4306D1D181EA030150
:1002C00001F000414FF0000070BD50EA410606BF4A
:1002D0001046194652EA430619D094EA0C0F02D18F
:1002E00050EA013613D195EA0C0F05D152EA0336D4
:1002F0001CBF104619460AD181EA030101F00041F2
:1003000041F0FE4141F470014FF0000070BD41F03A
:10031000FE4141F4780170BD70B54FF0FF0C4CF414
:10032000E06C1CEA11541DBF1CEA135594EA0C0F33
:1003300095EA0C0F00F0A7F8A4EB050481EA030E80
:1003400052EA03354FEA013100F088804FEA033367
:100350004FF0805545EA131343EA12634FEA022235
:1003600045EA111545EA10654FEA00260EF00041F6
:100370009D4208BF964244F1FD0404F5407402D248
:100380005B084FEA3202B61A65EB03055B084FEAD9
:1003900032024FF480104FF4002CB6EB020E75EBD6
:1003A000030E22BFB61A754640EA0C005B084FEAFE
:1003B0003202B6EB020E75EB030E22BFB61A75467B
:1003C00040EA5C005B084FEA3202B6EB020E75EBC6
:1003D000030E22BFB61A754640EA9C005B084FEA3E
:1003E0003202B6EB020E75EB030E22BFB61A75464B
:1003F00040EADC0055EA060E18D04FEA051545EA3A
:1004000016754FEA06164FEAC30343EA52734FEAE2
:10041000C2025FEA1C1CC0D111F4801F0BD141EA5B
:1004200000014FF000004FF0004CB6E711F4801FC0
:1004300004BF01430020B4F1FD0C88BFBCF5E06FA0
:100440003FF6AFAEB5EB030C04BFB6EB020C5FEAB0
:10045000500C50F1000041EB045170BD0EF0004E05
:100460004EEA113114EB5C04C2BFD4EB0C0541EA37
:10047000045170BD41F480114FF0000E013C90E634
:1004800045EA060E8DE60CEA135594EA0C0F08BFF8
:1004900095EA0C0F3FF43BAF94EA0C0F0AD150EAF7
:1004A00001347FF434AF95EA0C0F7FF425AF10468A
:1004B00019462CE795EA0C0F06D152EA03353FF4B2
:1004C000FDAE1046194622E750EA410618BF52EA2F
:1004D00043067FF4C5AE50EA41047FF40DAF52EA03
:1004E00043057FF4EBAE12E74FEA410212F500122A
:1004F00015D211D56FF47873B3EB625212D94FEA6B
:10050000C12343F0004343EA505311F0004F23FA54
:1005100002F018BF404270474FF00000704750EAA9
:10052000013005D111F0004008BF6FF00040704766
:100530004FF00000704700BF4FEA4102B2F1E043C4
:1005400024BFB3F5001CDCF1FE5C0DD901F0004CBA
:100550004FEAC0024CEA5070B2F1004F40EB83000A
:1005600008BF20F00100704711F0804F21D113F136
:100570003872BCBF01F00040704741F480114FEA6F
:100580005252C2F11802C2F1200C10FA0CF320FAF8
:1005900002F018BF40F001004FEAC1234FEAD32315
:1005A00003FA0CFC40EA0C0023FA02F34FEA43037F
:1005B000CCE77FEA625307D150EA01331EBF4FF008
:1005C000FE4040F44000704701F0004040F0FE4023
:1005D00040F40000704700BF80F0004002E000BF20
:1005E00081F0004142001FBF5FEA410392EA030F1E
:1005F0007FEA226C7FEA236C6AD04FEA1262D2EB68
:100600001363C1BFD218414048404140B8BF5B426C
:10061000192B88BF704710F0004F40F4000020F005
:100620007F4018BF404211F0004F41F4000121F01B
:100630007F4118BF494292EA030F3FD0A2F1010265
:1006400041FA03FC10EB0C00C3F1200301FA03F1A3
:1006500000F0004302D5494260EB4000B0F5000FC6
:1006600013D3B0F1807F06D340084FEA310102F185
:100670000102FE2A51D2B1F1004F40EBC25008BF37
:1006800020F0010040EA03007047490040EB000001
:10069000013A28BFB0F5000FEDD2B0FA80FCACF102
:1006A000080CB2EB0C0200FA0CF0AABF00EBC2502F
:1006B00052421843BCBFD0401843704792F0000F1D
:1006C00081F4000106BF80F400000132013BB5E770
:1006D0004FEA41037FEA226C18BF7FEA236C21D0E6
:1006E00092EA030F04D092F0000F08BF084670474B
:1006F00090EA010F1CBF0020704712F07F4F04D119
:10070000400028BF40F00040704712F100723CBF2B
:1007100000F50000704700F0004343F0FE4040F455
:10072000000070477FEA226216BF08467FEA236313
:100730000146420206BF5FEA412390EA010F40F4FE
:10074000800070474FF0000304E000BF10F000434A
:1007500048BF40425FEA000C08BF704743F0964331
:1007600001464FF000001CE050EA010208BF70474C
:100770004FF000030AE000BF50EA010208BF7047D3
:1007800011F0004302D5404261EB41015FEA010CE8
:1007900002BF84460146002043F0B64308BFA3F1E0
:1007A0008053A3F50003BCFA8CF2083AA3EBC253C2
:1007B00010DB01FA02FC634400FA02FCC2F12002E1
:1007C000BCF1004F20FA02F243EB020008BF20F018
:1007D0000100704702F1200201FA02FCC2F120027E
:1007E00050EA4C0021FA02F243EB020008BF20EA73
:1007F000DC7070474FF0FF0C1CEAD0521EBF1CEAA1
:10080000D15392EA0C0F93EA0C0F6FD01A4480EA8E
:10081000010C400218BF5FEA41211ED04FF0006377
:1008200043EA501043EA5111A0FB01310CF00040A3
:10083000B1F5000F3EBF490041EAD3715B0040EAC9
:10084000010062F17F02FD2A1DD8B3F1004F40EB99
:10085000C25008BF20F00100704790F0000F0CF06C
:10086000004C08BF49024CEA502040EA51207F3A30
:10087000C2BFD2F1FF0340EAC250704740F400000B
:100880004FF00003013A5DDC12F1190FDCBF00F0FC
:1008900000407047C2F10002410021FA02F1C2F1AA
:1008A000200200FA02FC5FEA310040F1000053EA46
:1008B0004C0308BF20EADC70704792F0000F00F094
:1008C000004C02BF400010F4000F013AF9D040EA9A
:1008D0000C0093F0000F01F0004C02BF490011F42E
:1008E000000F013BF9D041EA0C018FE70CEAD1532C
:1008F00092EA0C0F18BF93EA0C0F0AD030F0004CAC
:1009000018BF31F0004CD8D180EA010000F000405F
:10091000704790F0000F17BF90F0004F084691F01D
:10092000000F91F0004F14D092EA0C0F01D1420257
:100930000FD193EA0C0F03D14B0218BF084608D120
:1009400080EA010000F0004040F0FE4040F400006A
:10095000704740F0FE4040F4400070474FF0FF0CFD
:100960001CEAD0521EBF1CEAD15392EA0C0F93EA44
:100970000C0F69D0A2EB030280EA010C49024FEA96
:10098000402037D04FF0805343EA111143EA10134F
:100990000CF000408B4238BF5B0042F17D024FF407
:1009A000000C8B4224BF5B1A40EA0C00B3EB510FE2
:1009B00024BFA3EB510340EA5C00B3EB910F24BFCB
:1009C000A3EB910340EA9C00B3EBD10F24BFA3EB50
:1009D000D10340EADC001B0118BF5FEA1C1CE0D118
:1009E000FD2A3FF650AF8B4240EBC25008BF20F0CB
:1009F000010070470CF0004C4CEA50207F32C2BF1F
:100A0000D2F1FF0340EAC250704740F400004FF0BB
:100A10000003013A37E792F0000F00F0004C02BFEC
:100A2000400010F4000F013AF9D040EA0C0093F0B6
:100A3000000F01F0004C02BF490011F4000F013B10
:100A4000F9D041EA0C0195E70CEAD15392EA0C0F78
:100A500008D142027FF47DAF93EA0C0F7FF470AFB0
:100A6000084676E793EA0C0F04D14B023FF44CAFF3
:100A700008466EE730F0004C18BF31F0004CCAD188
:100A800030F000427FF45CAF31F000437FF43CAFC4
:100A90005FE700BF4FF0FF3C06E000BF4FF0010CE6
:100AA00002E000BF4FF0010C4DF804CD4FEA4002C8
:100AB0004FEA41037FEA226C18BF7FEA236C11D012
:100AC00001B052EA530C18BF90EA010F58BFB2EBC5
:100AD000030088BFC81738BF6FEAE17018BF40F045
:100AE000010070477FEA226C02D15FEA402C05D1F9
:100AF0007FEA236CE4D15FEA412CE1D05DF8040B7E
:100B0000704700BF844608466146FFE70FB5FFF710
:100B1000C9FF002848BF10F1000F0FBD4DF808EDC8
:100B2000FFF7F4FF0CBF012000205DF808FB00BFB9
:100B30004DF808EDFFF7EAFF34BF012000205DF813
:100B400008FB00BF4DF808EDFFF7E0FF94BF012060
:100B500000205DF808FB00BF4DF808EDFFF7D2FF5D
:100B600094BF012000205DF808FB00BF4DF808EDA0
:100B7000FFF7C8FF34BF012000205DF808FB00BF6D
:100B80004FEA4002B2F1FE4F0FD34FF09E03B3EB9A
:100B900012620DD94FEA002343F0004310F0004FDA
:100BA00023FA02F018BF404270474FF00000704730
:100BB00012F1610F01D1420205D110F0004008BFCF
:100BC0006FF0004070474FF00000704753B94AB9CA
:100BD000002908BF00281CBF4FF0FF314FF0FF3045
:100BE00000F076B9ADF1080C6DE904CE00F006F81E
:100BF000DDF804E0DDE9022304B070472DE9F04799
:100C0000089E0D4604468846002B4DD18A429446E4
:100C100068D9B2FA82F252B101FA02F3C2F12001AC
:100C200020FA01F10CFA02FC41EA030894404FEA71
:100C30001C41B8FBF1F71FFA8CFE01FB178807FB7C
:100C40000EF0230C43EA084398420AD91CEB030335
:100C500007F1FF3580F01E81984240F21B81023F70
:100C600063441B1AB3FBF1F001FB103300FB0EFED3
:100C7000A4B244EA0344A6450AD91CEB040400F1DB
:100C8000FF3380F00981A64540F2068164440238B2
:100C90000021A4EB0E0440EA07401EB10023D4401B
:100CA000C6E90043BDE8F0878B4208D9002E00F06A
:100CB000EE800021C6E900050846BDE8F087B3FADA
:100CC00083F100294AD1AB4202D3824200F2FC8078
:100CD000841A65EB030301209846002EE2D0C6E992
:100CE0000048DFE702B9FFDEB2FA82F2002A40F0E4
:100CF0009180A1EB0C0001214FEA1C471FFA8CFEEA
:100D0000B0FBF7F307FB1300250C45EA00450EFB8B
:100D100003F0A84208D91CEB050503F1FF3802D205
:100D2000A84200F2CE8043462D1AB5FBF7F007FB30
:100D300010550EFB00FEA4B244EA0544A64508D9AE
:100D40001CEB040400F1FF3502D2A64500F2B68088
:100D50002846A4EB0E0440EA03409EE7C1F12007B9
:100D60008B4022FA07FC4CEA030C25FA07FA4FEAFB
:100D70001C49BAFBF9F820FA07F309FB18AA8D40C1
:100D80001FFA8CFE1D4300FA01F308FB0EF02C0C39
:100D900044EA0A44A04202FA01F20BD91CEB040413
:100DA00008F1FF3A80F08880A04240F28580A8F1E7
:100DB00002086444241AB4FBF9F009FB104400FB58
:100DC0000EFEADB245EA0444A64508D91CEB040466
:100DD00000F1FF356CD2A6456AD90238644440EA76
:100DE0000840A0FB0295A4EB0E04AC42C846AE46F8
:100DF00056D353D0002E69D0B3EB080264EB0E0437
:100E000022FA01F304FA07F71F43CC40C6E9007445
:100E1000002147E70CFA02FCC2F1200125FA01F398
:100E20004FEA1C4720FA01F195400D43B3FBF7F15F
:100E300007FB11331FFA8CFE280C40EA034001FB2C
:100E40000EF3834204FA02F408D91CEB000001F10E
:100E5000FF382FD283422DD902396044C01AB0FB2B
:100E6000F7F307FB1300ADB245EA004503FB0EF0B4
:100E7000A84208D91CEB050503F1FF3816D2A84299
:100E800014D9023B6544281A43EA014138E7314648
:100E9000304607E72F46E4E61846F9E64B45A9D267
:100EA000B9EB020865EB0C0E0138A3E74346EAE70D
:100EB000284694E74146D1E7D0467BE764440238B0
:100EC00047E7023B65442FE7084606E73146E9E677
:100ED000704700BFFEE71EF0040F0CBFEFF3088061
:100EE000EFF30980FEE7704708B5174B02E00022D8
:100EF00043F8042B154A9342F9D3154A154B9A42ED
:100F000009D0134A134B03E052F8041B43F8041BA7
:100F100011498B42F8D3114A114B9A4209D00F4A1A
:100F20000F4B03E052F8041B43F8041B0D498B429E
:100F3000F8D30D4A4FF0E023C3F8082D0B4B0C4AB1
:100F40001A6004F031FDFEE700080010687A001016
:100F500010FB0000000000108804001098FF000043
:100F600000C0072020C40720000000000008001077
:100F700000093D0010B5164C236A43F0005343F4BA
:100F800080232362236C43F40073236410210846FA
:100F900001F0F9FF4FF00053E3634FF48023A363A4
:100FA0004FF40073A3654FF48033A361002000F079
:100FB00039FD4FF4FA6002F0A1FD0648002380F8E5
:100FC0002030054A426280F8283001F0CFFD10BD84
:100FD00000C009200408001000127A0008B500F0D3
:100FE00049F808BD08B500F03FF808BD08B500F0A5
:100FF00053F808BD08B50A460146024801F07AFEDA
:1010000008BD00BF0408001008B5064B93F828205F
:1010100022F0100283F828205862184601F0A6FD3D
:1010200008BD00BF04080010004870470408001005
:101030000A4B1B680A4AA2FB03239B09013BB3F13D
:10104000807F0AD24FF0E0225361064BF82183F8EB
:1010500023100023936107231361704700080010D9
:10106000D34D621000ED00E0014B1868704700BFDF
:1010700038080010034B1B681844024B1B6883425E
:10108000FBD3704738080010024A1368013313601D
:10109000704700BF3808001010B50446FFF7E4FFA2
:1010A000001B10BD3E4BD3F88830C3F30163032B04
:1010B00011D03B4BD3F80C3103F00303012B5CD070
:1010C000022B63D0364BD3F80401C0B2431C354821
:1010D000B0FBF3F07047324BD3F80C3103F003034D
:1010E000012B19D0022B2FD02D4AD2F88800C0F343
:1010F0000E0001304000D2F88830C3F307430133BB
:10110000B0FBF3F0274B03FB00F0D2F80431DBB265
:101110000133B0FBF3F07047214AD2F88800C0F3E6
:101120000E0001304000D2F88830C3F3074301338A
:10113000B0FBF3F01C4B03FB00F0D2F80431DBB240
:101140000133B0FBF3F07047154AD2F88800C0F3C2
:101150000E0001304000D2F88830C3F3074301335A
:10116000B0FBF3F04FF4FA4303FB00F0D2F8043184
:10117000DBB20133B0FBF3F07047094BD3F8040145
:10118000C0B2431C0848B0FBF3F07047044BD3F8DF
:101190000401C0B2431C4FF4FA40B0FBF3F07047B7
:1011A00000C00F4000093D00001BB700274B202264
:1011B000C3F8A021254BD3F8A03113F0400FF9D08C
:1011C000224B0122C3F80C2150282FD0642835D09F
:1011D000482823D00522C3F804210B22C3F8842019
:1011E0001A4B0122C3F88020AA22C3F88C20552272
:1011F000C3F88C20154BD3F8883013F0806FF9D0EA
:10120000124B0322C3F88020AA22C3F88C20552257
:10121000C3F88C200E4AC3F8C42070470B4B03223E
:10122000C3F804210B4AC3F88420D9E7074B0422F2
:10123000C3F80421084AC3F88420D1E7034B0222F3
:10124000C3F80421054AC3F88420C9E700C00F4051
:10125000DE872804170001001300020018000100B7
:101260000E4B2322C3F8A4200122C3F8A020AA22F7
:10127000C3F8AC205522C3F8AC20084BD3F8A830F3
:1012800013F4806FF9D0054B0322C3F8A020AA22E3
:10129000C3F8AC205522C3F8AC20704700C00F4003
:1012A00008B52F2822D8134B0022C3F80C21202286
:1012B000C3F8A0210F4BD3F8A03113F0400FF9D0A1
:1012C0000C4B0022C3F80421C3F8A821C3F8AC21B9
:1012D000094B0A4A1A60074B43F23A021A60FFF7B9
:1012E000E1FE054B1860FFF7A3FE08BDFFF75EFFA8
:1012F000F1E700BF00C00F400008001000093D00EA
:1013000002280AD003280CD0012803D0074B186804
:1013100080087047054B18687047044B18684008F0
:101320007047024B1868C008704700BF00080010E3
:1013300008B50F280AD80B4BD3F8A831400023FA80
:1013400000F000F00300FFF7DBFF08BD054BD3F80A
:10135000AC31400000F01E0023FA00F000F0030062
:10136000F1E700BF00C00F40420002F01E020F284C
:101370000DD8084B18684FF0030C0CFA02FC20EA59
:101380000C00186018689140014319607047024BC7
:10139000F0E700BFA8C10F40ACC10F4011F00F0F24
:1013A0002AD170477B6904EB44060122B24023EA4C
:1013B00002037B61144B03EB86060023B360013408
:1013C000E4B2032C1ED80123A3402B42F7D0DFF850
:1013D000388004EB44034FEA830908EB83039B68DE
:1013E000984758F80930002BDCD0B96807F118028B
:1013F00026010B449351E2E72DE9F84307460D46D9
:101400000024DEE7BDE8F8833C0800104FF04021DF
:101410004B6900EB40000122824023EA02034B614A
:10142000034B03EB800100228A6043F820207047C1
:101430003C080010012343607047022343600023EF
:1014400043607047022343607047022343600123D7
:101450004360704710B50446B0F1402F1AD0144BCA
:10146000984217D003F50823984213D003F5804320
:1014700098421BD10F4AD2F8C43043F40003C2F89B
:10148000C430FFF7DAFF01211720FFF76DFF0A4B89
:1014900010221A6000226261084B1B680849A1FBF8
:1014A00003139B0C013BE360064B1A6010BD00BFA9
:1014B0000080004000C00F4000E100E00008001084
:1014C00083DE1B436C080010002B3ED0F8B50646A7
:1014D0000C4615461F46FFF7B5FF04F001044DB159
:1014E000012D23D0B36A04EB440103228A40134345
:1014F000B36208E0B36A04EB440101228A4023EAA4
:1015000002031343B362DCB90321172001F03BFD52
:101510000E4B1F60B36A04EB4404042202FA04F485
:101520001C43B4623046FFF785FFF8BDB36A04EB95
:10153000440102228A4023EA02031343B362E2E732
:101540000321182001F01FFDE2E770476C0800102E
:1015500010B50446B0F1402F19D0394B984235D020
:10156000384B984242D0384B984268D1374AD2F82B
:10157000C43043F40003C2F8C43001211720FFF740
:10158000F3FE314B02225A604FF0040C10E02F4A58
:10159000D2F8C43043F00203C2F8C4300121084637
:1015A000FFF7E2FE4FF0402302225A604FF0010C99
:1015B0000023A362636102226260254A1268254902
:1015C000A1FB0212920C013AE2602DE01F4AD2F810
:1015D000C43043F00403C2F8C43001210220FFF7F5
:1015E000C3FE0223164A53609C46E1E7174AD2F82D
:1015F000C43043F48003C2F8C43001211620FFF741
:10160000B3FE104B02225A604FF0030CD0E7124A8F
:1016100003EB430189000020505003EB430102EB30
:10162000810290600133DBB2032BF0D901236360A8
:101630004FEA5C1103FA0CF3084A42F8213010BD5E
:1016400000800040000009400040094000C00F40F9
:101650000008001083DE1B433C08001000E100E09E
:10166000D2B110B5144601F003010C4A01EB410C54
:1016700002EB8C0ECEF8084042F82C3082681344FE
:1016800000F118040A01013BA3504369012202FA48
:101690000CF11943416110BD704700BF3C080010B8
:1016A00038B50024032C11D804EB440C094D05EB8C
:1016B0008C0CDCF808500DB10134F3E70B46024600
:1016C000E1B24FF04020FFF7CBFF00E004242046BA
:1016D00038BD00BF3C08001010B54FF04024216811
:1016E0002046FFF75BFE2368236010BD10B5074B53
:1016F0001C681C6014F0300F03D0D86A044B1B68C0
:10170000984721460148FFF749FE10BD00400940B7
:101710006C08001018B1044B02229A637047024B08
:101720000222DA63704700BF00C00920020A064B9C
:101730001A754FF48072DA63DA639A63C0B218756F
:10174000DA63DA639A63704700C00920084B4FF4EC
:101750000071D96300221A754FF48072DA63DA637C
:101760009A631875DA63DA639A639963704700BF06
:1017700000C00920F8B507460E4615461C46522003
:10178000FFF7E4FF3846FFF7D1FF5320FFF7DEFFF6
:10179000781980B2013880B2FFF7C8FF5020FFF7F8
:1017A000D5FF3046FFF7C2FF5120FFF7CFFF34448B
:1017B000A4B2013CA0B2FFF7B9FF2120FFF7C6FF9A
:1017C0003846FFF7B3FF2020FFF7C0FF3046FFF792
:1017D000ADFFF8BDF8B507460E4615461C4650202D
:1017E000FFF7B4FF3846FFF7A1FF5120FFF7AEFF28
:1017F000781980B2013880B2FFF798FF5220FFF7C6
:10180000A5FF3046FFF792FF5320FFF79FFF3444B8
:10181000A4B2013CA0B2FFF789FF2020FFF796FF9A
:101820003846FFF783FF2120FFF790FF3046FFF790
:101830007DFFF8BD0DE0020A084B1A754FF4807267
:10184000DA63DA639A63C1B21975DA63DA639A63A9
:10185000614601F1FF3C0029EDD1704700C009202D
:1018600010B5034C2468A0472220FFF76FFF10BD7E
:101870007008001038B514461D46FFF7F1FF05FB50
:1018800004F1BDF81000FFF7D5FF38BD38B5049D51
:1018900003FB02F4FFF7E4FF0EE06A78084B1A75C9
:1018A0004FF48072DA63DA639A6315F8020B1875E5
:1018B000DA63DA639A630C46611E002CEDD138BD01
:1018C00000C0092010B5144601231A46FFF7C8FFCF
:1018D0002046FFF72BFF10BD10B504466A20FFF726
:1018E00035FF2046FFF722FF10BD0000014B18888E
:1018F000704700BF76080010014B1888704700BF82
:101900007408001008B5032822D8DFE800F002228E
:1019100041600320FFF71AFF41F23000FFF706FF96
:101920000120FFF713FF4FF48070FFF7FFFE6020E8
:10193000FFF70CFF4FF42740FFF7F8FE344B4FF44E
:10194000A0721A80334BF0221A80334B334A1A604C
:1019500008BD0320FFF7FAFE41F23800FFF7E6FE6C
:101960000120FFF7F3FE0020FFF7E0FE6020FFF705
:10197000EDFE4FF42740FFF7D9FE254BF0221A80E9
:10198000244B4FF4A0721A80234B254A1A60DFE7DC
:101990000320FFF7DBFE41F23000FFF7C7FE012016
:1019A000FFF7D4FE0020FFF7C1FE6020FFF7CEFE58
:1019B0004FF41C50FFF7BAFE154B4FF4A0721A807B
:1019C000144BF0221A80144B144A1A60C0E703200B
:1019D000FFF7BCFE41F23800FFF7A8FE0120FFF739
:1019E000B5FE4FF48070FFF7A1FE6020FFF7AEFE5A
:1019F0004FF41C50FFF79AFE054BF0221A80054B5E
:101A00004FF4A0721A80044B054A1A60A0E700BF89
:101A1000740800107608001070080010D517000038
:101A2000751700002DE9F041BB4C236A43F4E263D3
:101A300043F0030323622378FF2323704FF480686D
:101A4000C4F838804FF48077A7631025A56301267A
:101A5000E6636420FFF7C2FAA663C4F83C80E52081
:101A6000FFF774FE4FF40040FFF760FE0020FFF721
:101A70006DFE3046FFF75AFE3220FFF7AFFA3046D0
:101A8000FFF764FE3846FFF751FE0220FFF75EFEC7
:101A90004FF4E060FFF74AFE0320FFF757FE41F2E4
:101AA0003000FFF743FE0420FFF750FE0020FFF751
:101AB0003DFE0820FFF74AFE40F20220FFF736FE07
:101AC0000920FFF743FE0020FFF730FE0A20FFF752
:101AD0003DFE0020FFF72AFE0C20FFF737FE002016
:101AE000FFF724FE0D20FFF731FE0020FFF71EFE5A
:101AF0000F20FFF72BFE0020FFF718FE2846FFF708
:101B000025FE0020FFF712FE1120FFF71FFE002028
:101B1000FFF70CFE1220FFF719FE0020FFF706FE6C
:101B20001320FFF713FE0020FFF700FEC820FFF789
:101B300055FA2846FFF70AFE41F2B070FFF7F6FDAE
:101B40001120FFF703FE40F23710FFF7EFFD3220C0
:101B5000FFF744FA1220FFF7F9FD4FF49E70FFF7EC
:101B6000E5FD3220FFF73AFA1320FFF7EFFD4FF4BF
:101B7000A050FFF7DBFD2920FFF7E8FD0720FFF766
:101B8000D5FD3220FFF72AFA3020FFF7DFFD0720CE
:101B9000FFF7CCFD3120FFF7D9FD40F20450FFF7ED
:101BA000C5FD3220FFF7D2FD40F20370FFF7BEFD06
:101BB0003520FFF7CBFD0220FFF7B8FD3620FFF7F9
:101BC000C5FD40F20770FFF7B1FD3720FFF7BEFDFE
:101BD00040F20640FFF7AAFD3820FFF7B7FD0620C8
:101BE000FFF7A4FD3920FFF7B1FD40F20440FFF7F5
:101BF0009DFD3C20FFF7AAFD4FF4E060FFF796FD46
:101C00003D20FFF7A3FD40F60820FFF78FFD502091
:101C1000FFF79CFD0020FFF789FD5120FFF796FD9F
:101C2000EF20FFF783FD5220FFF790FD0020FFF724
:101C30007DFD5320FFF78AFD40F23F10FFF776FD50
:101C40006020FFF783FD4FF42840FFF76FFD612010
:101C5000FFF77CFD0320FFF769FD6A20FFF776FDA3
:101C60000020FFF763FD8020FFF770FD0020FFF7E5
:101C70005DFD8120FFF76AFD0020FFF757FD822000
:101C8000FFF764FD0020FFF751FD8320FFF75EFDA5
:101C90000020FFF74BFD8420FFF758FD0020FFF7E1
:101CA00045FD8520FFF752FD0020FFF73FFD902006
:101CB000FFF74CFD2846FFF739FD9220FFF746FD60
:101CC0000020FFF733FD9320FFF740FD0320FFF7CF
:101CD0002DFD9520FFF73AFD4FF48870FFF726FDA4
:101CE0009720FFF733FD0020FFF720FD9820FFF736
:101CF0002DFD0020FFF71AFD0720FFF727FD40F21A
:101D00007310FFF713FD4FF4FA70FFF767F9002027
:101D1000FFF7F8FDBDE8F08100C0092030B583B0C1
:101D20000546FFF7E3FD0446FFF7E6FD0346009591
:101D3000224600210846FFF79DFD03B030BD00B5E7
:101D400083B000930123FFF795FD03B05DF804FB1A
:101D500000B583B0009313460122FFF78BFD03B05B
:101D60005DF804FB2DE9F04F83B005460C4616469E
:101D70009846BDF830A00346171AB8EB010916D4EF
:101D80004FF0010B002F17DB01230193AE4218D057
:101D9000A04521D04FEA49097F00524621462846F6
:101DA000FFF790FDB94536DAA9EB670829E0A1EB0A
:101DB00008094FF0FF3BE5E79F1B4FF0FF3301930E
:101DC000E4E753461FFA89F24146A04528BF214661
:101DD0002846FFF7BDFF08E05346BAB22146304619
:101DE000AE4228BF2846FFF7AAFF03B0BDE8F08F38
:101DF000019B1D44ADB2C844524621462846FFF718
:101E000061FDB542F1D0B8F1000FF1DB5C44A4B242
:101E1000A8EB0708ECE7A7EB690607E05C44A4B26F
:101E20003E44524621462846FFF74CFD4445DCD04F
:101E3000002EF3DB019B1D44ADB2A6EB0906EDE7D6
:101E4000F8B507461546002617E0114B5889FFF7ED
:101E50006DFC0134E4B20E4BDB681B78A34209D958
:101E60002A78802323411A42EFD0094B1889FFF7C3
:101E70005DFCEEE701350136F6B2054BDB685A78BA
:101E8000B24201D90024E6E718783844F8BD00BF13
:101E900000040010014B18815981704700040010A4
:101EA00010B4074BDC6894F800C000FB0CFCA3F8EE
:101EB00012C0627801FB02F29A8210BC704700BF28
:101EC000000400102DE9F04106460F46A2F120045F
:101ED000E4B20A4DEA685378127889B280B2FFF70B
:101EE000BFFCD5F81880EB685A685B7803FB0422C6
:101EF00039463046C047BDE8F08100BF00040010FD
:101F000070B582B004460A2805D0264B5D8AFFF7DB
:101F1000EDFC85421BD1234B00225A82DA685578AA
:101F20001A7C15449A8A1544ADB29D82FFF7E4FCF1
:101F3000854207D31B4B00229A82DB8A13B9194BC7
:101F40000122DA82174BDB8A63B90A2C08D00D2CE8
:101F500024D0144D2246A98A688AFFF7B3FF68820D
:101F600002B070BD0F4DA88AEB685B78184480B250
:101F70002B7C184480B2FFF7AFFCAE8AFFF7B6FCAB
:101F80000246EB6859782B7C688900900B443146F7
:101F90000020FFF76FFC00236B82D6E7014B002285
:101FA0005A82DDE70004001010B5044602E0013457
:101FB000FFF7A6FF20780028F9D110BD70B584B0D6
:101FC00000290BDB0026C9B2002A10DB4FF0200EDF
:101FD000102A00DD10224FF0000C1EE0494249B2E9
:101FE000002801DB0026EEE740422D26EBE75242B7
:101FF00052B24FF0300EEBE70733DBB230330CF167
:102000000104E4B20CF110056D4405F8103CB0FB7E
:10201000F1F3814209D81846A446B0FBF1F301FB65
:102020001303DBB2092BE9D9E6E786B10CF1020C08
:1020300004F110030DEB030404F8106C5FFA8CF448
:1020400005E00134E4B210336B4403F810EC23468E
:102050009442F6DB013CE4B204F110036B4413F844
:10206000100CFFF74DFF002CF4D104B070BD000040
:102070002DE9F84304460D461746FEF735FA80462B
:10208000082F00D908270023994619E00022184B91
:1020900020462946FEF716F804460D4609EB89034B
:1020A0004FEA4309FEF720FA8144124B83FB0023D9
:1020B000C017A0EBA30303EB830309EB43093346EB
:1020C0005E1CF6B29F42E1D800226FF00901404643
:1020D000FFF774FF2E20FFF713FF7A4252B20A2156
:1020E00089EAE970A0EBE970FFF768FFBDE8F883C3
:1020F00000002440676666660FB42DE9F04383B0A4
:102100000AAB53F8044B019302E0FFF7F9FE2C46AB
:10211000254615F8010B43B2002B00F0A380252BB8
:10212000F3D1023495F90080B8F12E0F06D00026C5
:10213000B8F1300F07D00025002714E0AC1C95F94A
:1021400001800126F4E714F9018B0125F4E7FAB2C6
:1021500002EB82004300DBB20B44DBB21A44303A9C
:1021600057B214F9018B5FFA88F1A1F13002D2B2B3
:10217000092AECD9B8F16C0F32D04FF00009B8F150
:10218000000F6FD0B8F1730F2FD0B8F1630F33D0B9
:10219000B8F1750F37D00021B8F1640F35D0B8F120
:1021A000580F35D0B8F1780F34D0B8F1620F33D072
:1021B000B8F1700F32D0B8F1660F34D0002951D089
:1021C0000DB17A4257B2B9F1000F3BD1002941DD80
:1021D000019B1A1D01923A461868FFF7EFFE97E738
:1021E00014F9018B4FF00109C9E7019B1A1D0192F7
:1021F0001868FFF7D9FE8BE7019B1A1D019218782A
:10220000FFF77EFE84E70A21C6E76FF00901C6E703
:102210001021CAE71021C8E70221C9E71448FFF7D7
:10222000C3FE1021C7E706B90627019B073323F039
:10223000070303F108020192FAB2D3E90001FFF7A4
:1022400017FF65E7019B1A1D01923A461868FFF7D0
:10225000B5FE5DE7019B1A1D01923A461868FFF72B
:10226000ADFE55E703B0BDE8F04304B0704700BFD2
:1022700070BA000010B504460F4B104ADA604FF6F2
:10228000FF721A8100205881187458829882D8826F
:102290000B4A1A600B4A9A61FFF71EFB04B910BD86
:1022A0000020FFF7BFFB044B5889FFF737FD0120E3
:1022B000FFF730FAF3E700BF000400101C04001021
:1022C000011F0000411E000010B504460C4AD2F860
:1022D000C43043F04003C2F8C43001210620FFF7A8
:1022E00043F8084B1B68084AA2FB03239B0C013BE5
:1022F000064AD3600523536002235361946110BDE5
:1023000000C00F400008001083DE1B430080014026
:1023100070470000062814D8642900D96421094AAE
:10232000936903FB01F1084BA3FB0131490900F15B
:10233000FF3C064B53F82C301960012303FA00F0E0
:1023400010657047008001401F85EB5174BD00008F
:1023500006280DD80138074B53F82030186864233D
:1023600003FB00F0044B9B69B0FBF3F0C0B2704775
:102370000020704774BD00000080014006281BD873
:1023800010B40138C0B24300DBB20C490A6903241F
:102390009C4022EA04020A610C69012202FA03F35A
:1023A00023430B61A1F5A031CB6C093002FA00F098
:1023B0001843C86410BC7047704700BF00C002409B
:1023C000062816D810B40138C0B24200D1B2094C68
:1023D000236903228A4023EA020323610649CB6C66
:1023E0000930012202FA00F023EA0000C86410BCA0
:1023F0007047704700C002400080014070470000F5
:1024000010B40B4AD2F8A84124F44044C2F8A841C1
:10241000D2F8A84144F40044C2F8A841054B1B6817
:102420005B08B3FBF1F189080161416110BC7047A1
:1024300000C00F400008001008B542685368083B10
:10244000502B34D8DFE803F02933333333333333BD
:102450002933333333333333423333333333333347
:1024600070333333333333334433333333333333EE
:102470007833333333333333823333333333333398
:1024800057333333333333337033333333333333BB
:102490005C333333333333337D00037D052B0ED070
:1024A000037A936003230377436820229A61436889
:1024B00008229A61037FDBB2062B4CD008BD037A59
:1024C00043F00103936002230377EDE704230377CE
:1024D000836901698B4209D2C168CB5C9360436810
:1024E00004221A60836901338361E0E706230377DE
:1024F00010231360DBE70523037704231360D6E77B
:102500009168C2688369D154836901338361026928
:10251000934203D2436804221A60C8E70623037774
:10252000436804229A61C2E707230377202393615B
:10253000436810221A60BAE7002303771023136060
:10254000B5E70023037710231360B0E70023037778
:1025500010231360ABE700230377036A002BADD091
:102560009847ABE72DE9F84F04464379012B35D066
:10257000022B44D0284AD2F8C43043F08003C2F87A
:10258000C430264B5A6822F070725A605A6842F082
:10259000A0725A604FF00A09214D94F80580214F2E
:1025A00008EBC80607EB86064FF0400BC5F818B0DD
:1025B0001D492846FFF724FFC5F800B02823AB616A
:1025C00075600023337726604FEA5911012303FA1F
:1025D00009F3164A42F82130BDE8F88F0E4AD2F8C6
:1025E000C43043F40023C2F8C430A2F5502213686B
:1025F00043F00F0313604FF00B090D4DCDE7074B70
:102600001A6822F470021A601A6842F420021A60F2
:102610004FF00C09074DC0E700C00F4000C002405A
:1026200000C0014078080010A086010000E100E031
:1026300000C0054000000A4010B40024846103611A
:10264000C2600175436820221A604FF080733BB16D
:10265000027F0AB9013BFAE790F9180010BC7047F5
:10266000436810221A60436808229A610020F5E747
:1026700008B5D0F800C0CCF8203013460A46052132
:102680000068FFF7D9FF08BD10B50468037923720D
:102690000023FFF7EDFF237F2BB1237FDBB2072B56
:1026A000F9D1002000E0206910BD08B5D0F800C0C5
:1026B000CCF8203013460A4604210068FFF7BCFF1F
:1026C00008BD10B50468037923720023FFF7EDFFFE
:1026D000237F2BB1237FDBB2072BF9D1002000E051
:1026E000206910BD08B50248FFF7A6FE08BD00BF6F
:1026F0007808001008B50248FFF79EFE08BD00BF2D
:102700009C08001008B50248FFF796FE08BD00BF00
:10271000C008001008B5054B1B682BB1044A51686E
:10272000886811690068984708BD00BF1409001047
:10273000E40800102DE9F84F07460026D0F800B055
:102740001B20FEF7F5FD8146BD6897F80D80A5FBBF
:10275000081297F80CA0A1FB0A130AFB02334918D0
:102760005B411C0402463346080444EA1141FEF76B
:102770002DFA402400E0013C44B1A4FB002304FBFB
:102780000133B2F5803F73F10003F4D2002C48D03E
:10279000A446A4FB00104FF6FF70FF221AE096B289
:1027A000A5FB06050AFB08F8A0FB080108FB0518B5
:1027B000ACFB00010CFB081100184A464FF0000367
:1027C0004941FEF703FA80B2FF2817D8B8B90120B3
:1027D00015E0013A002AE3D001FB02F313F07F4F2A
:1027E000F7D19BB2B3F5004F01D95B429BB2002BEE
:1027F000D5D08342EDD296B21846EAE7FF2046EAEA
:102800000026CBF82060BB7B13F0010F02D0631EC3
:10281000CBF82830BB7B13F0020F02D0013CCBF881
:102820002C40BDE8F88F000010B50446FFF782FF8A
:10283000237B082B24D0202B25D140F2DB73A27BF5
:1028400012F0020F09D012F0080F01D143F020035B
:10285000627B012A1AD0104A5360A27B12F0010F4A
:102860000DD012F0040F01D143F02003627B012A46
:102870000FD0E27B0AB143F40043074A136010BD56
:102880004FF4EC73DBE740F2D933D8E743F00403AD
:10289000E1E743F00403ECE700800A4038B5044662
:1028A000584AD2F8C43043F00063C2F8C430002163
:1028B0001B20FEF759FD544B236048F2E1721A6069
:1028C00040F2E1725A601433002203E0002143F821
:1028D000041B0132082AF9D92046FFF7A5FF237C03
:1028E000032B4CD8DFE803F0024C6378A37B13F092
:1028F000020F06D0454A136823F47C5343F4A853CF
:102900001360A37B13F0010F06D0404A136823F431
:102910007C2343F4A8231360A37B13F0100F1AD079
:1029200013F0010F09D0384B08221A63374A536A53
:1029300003F0006343F080635362A37B13F0020F44
:1029400009D0314B08225A63304A536A03F00073AE
:1029500043F0807353622E4D6A7D022363F3C402F9
:102960006A752C4AEA60AA8A63F34912AA822A7D10
:1029700063F304022A75284600F084FC656038BDC4
:10298000A37B13F0020F06D0204A536823F47C2364
:1029900043F428235360A37B13F0010FBCD01B4AE0
:1029A000136823F47C2343F4A8231360B4E7A37BC8
:1029B00013F0020F06D0154A136823F47C5343F436
:1029C000A8531360A37B13F0010FA5D00F4A13691E
:1029D00043F07C6313619FE7A37B13F0020F06D0E3
:1029E0000A4A536823F47C2343F428235360A37BCF
:1029F00013F0010F90D0054A136943F07C63136113
:102A00008AE700BF00C00F4000800A4000C00240BB
:102A1000E408001008800A4038B50446837B13F0B0
:102A2000010F17D1A37B13F0020F0AD0214B5A6874
:102A300022F018025A6040F201229A61A26A1E4BEB
:102A40001A601E4B1B68002B2FD01D4B4FF00062ED
:102A50001A6038BD426A194B1A604369194DAB6060
:102A6000C3695B082B61184BAB610521284600F058
:102A700025FC6B689A68D168144BD960516859601D
:102A800093609A60616911606269296902EB810251
:102A90001A60084B1A6822F018021A604FF00212EE
:102AA0005A61284600F09AFCBCE7034B1B68002BD8
:102AB000CBD1CEE700800A401009001014090010A5
:102AC00000E100E0E40800101527000000090010F4
:102AD00008B5837B13F0020F08D00D4BDA6922F0A2
:102AE0000102DA615A6842F018025A60837B13F0DF
:102AF000010F00D108BD064BDA6922F00202DA614B
:102B00001A6842F018021A60024800F06FFCF1E700
:102B100000800A40E4080010837B13F0010F06D008
:102B200031B1064A136843F400431360C173704720
:102B3000024A136823F400431360F7E700800A4059
:102B400008B502290AD004290CD0012903D0032199
:102B5000FEF70AFC01E0FEF707FC08BD0221FEF7C4
:102B600003FCFAE70021FEF7FFFBF6E72DE9F04151
:102B7000064690F82030012B3CD0022B5AD0002B77
:102B800040F09A80564AD2F8C43043F40013C2F899
:102B9000C430A2F55022136823F0404343F00043B1
:102BA0001360536823F03C0343F02803536090F80C
:102BB000283013F0080F15D14A4F4FF015080023A5
:102BC0003B607B600825002D5AD0474B1C68B4FB46
:102BD000F5F4736AB4FBF3F4A4F10B03F22B4BD9B5
:102BE0006D08F0E70221102000F0CDF93D4F4FF0C5
:102BF0001508E4E73A4AD2F8C43043F48063C2F8D7
:102C0000C430A2F55022136823F47C2343F4282314
:102C1000136090F8283013F0080F03D1334F4FF0B2
:102C20000A08CCE70221062000F0ADF92F4F4FF043
:102C30000A08C4E72A4AD2F8C43043F40013C2F8A1
:102C4000C430A2F550221168294B0B4043F4703375
:102C500043F44073D36090F8283013F0080F03D189
:102C6000204F4FF01508AAE70321352000F08BF91B
:102C70001C4F4FF01508A2E729464046FFF760FFBA
:102C8000E5B104F0FE043C6196F8283013F0020F21
:102C90001AD00F2203F0C003802B1AD0C02B1BD0F8
:102CA000402B13D03A6002237B60376096F82830BF
:102CB00043F0100386F82830BDE8F08129464046ED
:102CC000FFF73EFFFE24DCE70722E3E742F0800245
:102CD000E8E742F04002E5E742F0C002E2E700BF69
:102CE00000C00F40008008400008001000000340B2
:102CF000CF3CFC3F84460368D86810F0040F2AD00C
:102D000010B49C6825484464D86810F0040FF8D1CA
:102D10009CF8280010F0020F0AD118E00A889A6087
:102D2000DA6812F0100FFBD19A6821F8022B0246E4
:102D3000501E002AF2D110BC70470A789A60DA68F7
:102D400012F0100FFBD19A6801F8012B0246501EB9
:102D5000002AF2D1EFE79CF8280010F0020F0AD108
:102D600017E00A889A60DA6812F0100FFBD19A68AF
:102D700021F8022B0246501E002AF2D170470A7831
:102D80009A60DA6812F0100FFBD19A6801F8012BF3
:102D90000246501E002AF2D1704700BF0040024098
:102DA00002680B789360D36813F0100FFBD1906822
:102DB00080B270477047704770470000024A5368FE
:102DC00023F00D035360704700C0084010B504465F
:102DD00001210B20FEF7C8FA094A536823F4401377
:102DE00043F400135360074B4FF480321A602360A2
:102DF0000023A3602361044800F044FA10BD00BF23
:102E000000C0024000C0084018090010836803B3E6
:102E10004268144B9A60144ADA6082681A615A7DDB
:102E2000022161F3C4025A751A7D012161F3040283
:102E30001A759A8A61F349129A82036953B1094B50
:102E4000002199615A7D61F382025A75C268064B6E
:102E50009A607047034B054A9A615A7D42F004021A
:102E60005A75F3E71809001000C00840BD2D000096
:102E7000034A136803F4803319431160704700BF9D
:102E800000C0084008B5034800F0B0FA024B002229
:102E90005A6008BD1809001000C0084008B5FFF7C7
:102EA000F1FF08BD10B5074C0721204600F006FAD7
:102EB000204600F093FA044A536843F00C03536031
:102EC00010BD00BF1809001000C00840C160014BD0
:102ED0009960704700C00840420002F01E0C0309D0
:102EE0009B0003F1804303F5303301F003021968BE
:102EF000032000FA0CF021EA000102FA0CF211435F
:102F00001960704710B5420002F01E024FEA101E11
:102F10000F4C54F82E304FF0030C0CFA02FC23EA4D
:102F20000C0301F0030C0CFA02FC43EA0C0344F816
:102F30002E3011F0080F09D04009283454F8203001
:102F4000012101FA02F21A4344F8202010BD00BF0B
:102F500040C0024000F01F0C830803F038039B00C0
:102F600003F1005303F51C2339B91A68012101FA52
:102F70000CF122EA01021A6070471A68012101FA75
:102F80000CF10A43F7E738B504460D46FFF7A4FFF6
:102F9000A9082046FFF7B6FF05F010012046FFF70D
:102FA000D9FF38BD70B5049D4FEAD56C6C01641B28
:102FB0006CF1000C4FEA8C0C4CEA947CA400641970
:102FC0004CF1000C4FEACC0C4CEA547CC4F35B048B
:102FD00044EA0C7CBCFBF3FE144CA4FB0E54A40985
:102FE0004FF47A7505FB14E4F4B12C466434A4B2B2
:102FF00003FB04FEBCFBFEFE0EFB03F5BCFBF5F57C
:10300000A5F24C46B6F5487FF0D8094B00E00433F2
:103010001C88AC42FBD35B880360CEF307230B60B4
:103020005FFA8EF3136070BD014BF4E7D34D62106D
:103030008CBD000048B308B501688B6813F0010F20
:1030400007D1C3F34203022B09D0032B0DD0012B70
:1030500000D008BD00F5077000F0CDFAF9E7096867
:10306000C9B2103000F0B5FAF3E74B6913F09E0FC8
:1030700002D00B68CB61ECE713F0010FE9D00968CF
:10308000C9B2103000F0A5FAE3E7704770B582B01E
:1030900005460379012B41D0032B5BD0002B3BD19C
:1030A000384B1860384AD2F8C43043F00803C2F8ED
:1030B000C43000210320FEF757F90320FEF738F94A
:1030C000324B1A6822F0F0021A601A6842F050027D
:1030D0001A6005262E4C8323E3600090AB682246DD
:1030E000211D04F12800FFF75DFF0323E3600023A7
:1030F000A36071090123B340264A42F821302846D3
:1031000040F8104B00F05EFA05F5077000F05AFA2F
:10311000636843F00303636002B070BD194B5860ED
:10312000194AD2F8C43043F01003C2F8C430002169
:103130000420FEF719F90420FEF7FAF8134B1A6978
:1031400022F00F021A611A6942F00A021A61062679
:10315000114CC0E70B4BD8600B4AD2F8C43043F097
:103160000073C2F8C43000211920FEF7FDF81920C1
:10317000FEF7DEF8054A536843F4701353600826DF
:10318000064CA8E73409001000C00F4000C0024000
:1031900000C0004000E100E00000014000C0094024
:1031A0000268536913F0010FFBD01068C0B270477A
:1031B00038B5046800F50775284600F00AFA636917
:1031C00013F0400FFBD02146284600F014FA38BD1A
:1031D00070B505460C460668217831B1013405F515
:1031E000077000F0F6F90028F6D1736913F0400F6C
:1031F000FBD0314605F5077000F0FDF970BD08B54C
:10320000103000F0F8F9C0B208BD08B5103000F079
:1032100006FAC0B208BD2DE9F04106460C46174635
:10322000D0F800801546013DADB23DB114F8011B48
:1032300006F5077000F0CDF90028F4D1414606F5F7
:10324000077000F0D8F9781B80B2BDE8F08100006B
:1032500008B5024B1868FFF7EDFE08BD34090010F1
:1032600008B5024B5868FFF7E5FE08BD34090010A9
:103270007047000008B5024BD868FFF7DBFE08BDB9
:10328000340900100A4AD2F8C43043F00053C2F89F
:10329000C430084B1B6B13F0010F06D1054B012204
:1032A0001A63054B4FF080621A6000230361704778
:1032B00000C00F400040005000E100E030B544681D
:1032C00054B10023072B19D8404A52F823209442C6
:1032D00014D00133DBB2F5E7072200E01A463C4B7D
:1032E000DC69012393401C4206D0531EDBB2002A46
:1032F000F4D1FF2B08D165E01346FAE7344AD469CC
:1033000001229A4014425DD19C46304A52F8234033
:10331000012202FA03F32E4A93601361838AC3F3F6
:103320004412037D03F01F039B0443EA42530269E6
:10333000C2F30B021343427DC2F3C102022A16D02C
:10334000032A1CD0012A0AD00A09520002F01E02E8
:10335000890101F470710A4342F4C05210E043F055
:1033600000634A0002F01E0242F4805208E043F07B
:1033700080638A0102F4707242F4006200E000226D
:103380008169144D45F82C1019B143F0004342F403
:103390000042417D11F0040F15D10F4D4FEA0C1E74
:1033A00005EB0C11D0F808C045F80EC0C5684D609B
:1033B0008960CB60A16081682160C1686160E36061
:1033C0002261446030BD0021A160F4E7ACBE000082
:1033D000004000504409001064090010036923B143
:1033E0004268136943F0010313617047426813692F
:1033F00013F0010F09D0136943F48023136113699B
:1034000013F4003FFBD100231361704770B5012412
:1034100000250BE00F4B9E600E4BDB681E4201D077
:103420000C4B1E610135EDB26400E4B2072D0FD8DC
:10343000084B1B6826462342F4D0064B5B681C42AF
:10344000EAD0054B53F82530002BE3D09847E1E74D
:1034500070BD00BF0040005044090010032810D880
:1034600007304000C0B2194B5A680321814022EA5C
:1034700001025A605A68012101FA00F010435860B5
:103480007047031FDBB2012B13D900F00100C0F11C
:1034900003004000C0B20D4B1A680321814022EAAC
:1034A00001021A601A68022101FA00F01043186044
:1034B000704700F001000E3040000449CB68032241
:1034C00002FA00F01843C860704700BF00C0024015
:1034D00038B505461A4AD2F8C43043F48053C2F8CE
:1034E000C43001210C20FDF73FFF0C20FDF720FF29
:1034F000144BA3FB00231B0D1B029BB22A7B13431F
:1035000043F40013104A1360002401E00134E4B2D4
:10351000072C08D82B7B234113F0010FF6D020464F
:10352000FFF79CFFF2E7084BDA6822F48072DA605A
:103530002B60064B1D60064B4FF480021A6038BDAD
:1035400000C00F4083DE1B4300400340E40900102D
:1035500000E100E038B50B4B1C6B0B4B1D686A6833
:1035600001230A4901E05B000431FF2B07D8234205
:10357000F9D00888C0F30B0022F8020BF3E72B699F
:10358000984738BD00400340E40900101040034054
:10359000064A1168064B0B4413600648A3FB003033
:1035A0005840054BA0FB030358407047E809001042
:1035B00015FC20E10DB7394AC9D5FA1208B5FFF755
:1035C000E7FF08BD0023036043604FF4007383608E
:1035D0007047036801338268B3FBF2FC02FB1C33C3
:1035E00042689A4205D002680244117303600120C8
:1035F000704700207047026843689A420DD04368C4
:1036000001338268B3FBF2FC02FB1C3342680244C4
:10361000127B0A7043600120704700207047826867
:103620000368134440681B1AB3FBF2F002FB10302E
:10363000704710B58468FFF7F2FF201A013810BDFB
:10364000002303604360704743681844007B704761
:1036500001E02BB101300378202BFAD0092BF8D0F0
:10366000704738B5E0B10C46FFF7F2FF0378CBB1F5
:103670002060012503787BB1202B01D00130F9E7D0
:10368000002300F8013BFFF7E3FF0378002BF1D0A4
:1036900044F825000135EDE744F82530284638BDCB
:1036A0000025FBE70025F9E70346002000E0013094
:1036B00013F8012B002AFAD17047034628B11A7873
:1036C0001AB18A4201D00133F9E718467047034620
:1036D00001E00133013118780A78904202D10028C4
:1036E000F7D101E0801AC0B2704701E001311A46FB
:1036F000531EDBB222B10A7800F8012B002AF5D163
:103700007047037840B32D2B1FD04FF0000C0022E0
:10371000303BDBB2092B21D802EB820203EB4202E1
:103720000CF1010C5FFA8CFC10F8013F202B05D046
:103730000A2B03D00D2B01D0002BE9D11CF0800FF8
:1037400008D10A600CF07F007047437801304FF0D9
:10375000800CDCE75242F4E70020704700207047FD
:10376000037840B300220BE0573BDBB21A4310F85A
:10377000013FEBB1202B1BD00A2B19D00D2B17D0FA
:103780001201A3F1610C5FFA8CFCBCF1050FEBD9BF
:10379000A3F1410C5FFA8CFCBCF1050F02D8373B5A
:1037A000DBB2E3E7303BDBB2092BDFD90020704707
:1037B0000A6001207047002070472DE9F04186B073
:1037C0008C46171E0DDB0026002B13DB2025142B47
:1037D00000DD1423C3F1130400238DF817301322E6
:1037E0001CE07F42002901DB0026EDE7C1F1000C5F
:1037F0002D26E9E75B423025E9E70733DBB203F129
:103800003001531EDBB203F11808E84408F8141C19
:10381000BCFBFEF1E6450BD88C461A465FFA87FEE4
:10382000BCFBFEF30EFB13C3DBB2092BE7D9E4E7C5
:1038300076B1931EDBB203F118026A4402F8146CED
:1038400006E0013BDBB203F118026A4402F8145CA3
:10385000A342F6DCC3F1130405E00133DBB20246F8
:1038600002F8011B104603F118026A4412F8141CF6
:103870000029F2D100230370204606B0BDE8F08194
:103880002DE9F84307460C4616460846FDF778F939
:103890008046062E00D906260023994616E01949CF
:1038A0002046FCF7A7FF044609EB89034FEA4309CA
:1038B000FDF766F98144144B83FB0023C017A0EB8E
:1038C000A30303EB830309EB43092B465D1CEDB215
:1038D0009E42E4D800236FF0090241463846FFF7C4
:1038E0006CFF3C1801342E233B5473420A2289EAB0
:1038F000E971A1EBE9712046FFF75FFF2044C01B8F
:10390000BDE8F8830000204167666666F0B583B0C5
:1039100006460C460192054648E0023419782E29E5
:1039200006D04FF0000C302907D00027002313E009
:103930009C1C59784FF0010CF5E7224612F8011B48
:1039400014460127F2E703EB8303303901EB43030D
:10395000224612F8011B1446A1F13002092AF2D9BD
:103960006C292ED00020002978D073292FD063290C
:1039700039D075293ED0002264293DD058293ED047
:1039800078293ED062293ED066293ED0002A65D0F3
:1039900007B15B4200284FD1002A56DD0199081D6E
:1039A000019009682846FFF708FF0544234613F8ED
:1039B000012B002A52D0252AAFD005F8012B1C4636
:1039C000F4E7224612F8011B14460120CBE7019BC5
:1039D0001A1D01921B6802E0013305F8012B1A78C9
:1039E000002AF9D1E2E7019B1A1D01921B7805F824
:1039F000013BDBE70A22BFE76FF00902BEE71022B6
:103A0000C0E71022BEE70222BEE7BCF1000F00D1E2
:103A10000623019A073222F0070202F10801019100
:103A2000DFB2D2E90001FCF787FD01463A4628469D
:103A3000FFF726FF0544B9E70199081D01900968C1
:103A40002846FFF7BAFE0544B0E70199081D01902A
:103A500009682846FFF7B1FE0544A7E700232B704D
:103A6000A81B03B0F0BD0EB400B582B003AA52F893
:103A7000041B0192FFF74AFF02B05DF804EB03B0AC
:103A80007047002304E011F801CB00F803C00133B4
:103A90009342F8D3704788420CD38318114410E046
:103AA00011F8012B03F8012B624602F1FF3C002ABA
:103AB000F6D170470346F8E711F8012903F8012908
:103AC000624602F1FF3C002AF6D17047002301E074
:103AD000C15401339342FBD3704702E020F8021B2C
:103AE0001A46531E002AF9D1704702E040F8041B21
:103AF0001A46531E002AF9D170470000064B0022D7
:103B00001A605A60DA601861044A136A23F080531D
:103B100023F4703313627047EC09001000C00920D1
:103B200010B52B4B5A6B2B4B23EA02032A4AD2685F
:103B3000042A4AD8DFE802F0030A1D354300002BAF
:103B400043D0254A13600123D3603EE01BB9224BCA
:103B50000422DA6039E0204A12689A4202D01E4AF2
:103B6000136032E01C4C0223E360FDF73BFAA060D7
:103B70002BE01BB9184B0422DA6026E0164A1268C3
:103B80009A4204D0144A13600123D3601DE0124C02
:103B9000A068FDF72BFA2369984216D90322E26048
:103BA00013E01BB90C4B0422DA600EE00A4A1268DB
:103BB0009A420AD0084A13600123D36005E0064BFD
:103BC0001A685A6000221A60DA60034BD86810BD88
:103BD00000C0092000C00310EC090010014B186858
:103BE000704700BFEC09001070B582B005460E4664
:103BF000002410F0800F38D1264B4FF480329A61A8
:103C00008DF80050330E8DF80130C6F307438DF860
:103C10000230C6F307238DF803308DF80460402D81
:103C20002DD0482D2FD001238DF80530194B4FF49E
:103C30008032DA61184D19492868FFF7B1F8062279
:103C400069462868FFF756F820460024052C1ED840
:103C50001249114B1868FFF7A3F80346C0B213F0DE
:103C6000800F14D00134E4B2F0E721467720FFF74B
:103C7000BBFF01280BD805F07F050446BCE7952360
:103C80008DF80530D2E787238DF80530CEE702B0F6
:103C900070BD00BF00C00920040A0010080A00100F
:103CA00070B5054600214920FFF79EFFD8B90646AA
:103CB00020241049104B1868FFF772F8FE2810D026
:103CC000631E13F0FF04F4D101260DE009490A4BED
:103CD0001868FFF765F828550134E4B20F2CF5D9C0
:103CE00002E03446FAE70126044B4FF480329A6131
:103CF000304670BD080A0010040A001000C00920F8
:103D000070B5054600214A20FFF76EFFD8B9064678
:103D100020241049104B1868FFF742F8FE2810D0F5
:103D2000631E13F0FF04F4D101260DE009490A4B8C
:103D30001868FFF735F828550134E4B20F2CF5D98F
:103D400002E03446FAE70126044B4FF480329A61D0
:103D5000304670BD080A0010040A001000C0092097
:103D6000F8B50646202512E01149124B1868FFF7F6
:103D700017F8C4F10303F0540134E4B2032CF3D96F
:103D80003368002B0DDB6B1E13F0FF0508D00021FC
:103D90007A20FFF729FF07460028F4D10446EDE713
:103DA0000127054B4FF480329A613846F8BD00BFB9
:103DB000080A0010040A001000C0092070B582B083
:103DC0004C4B1B68002B2FD04A4B1868456A4A4B56
:103DD00043624A4BFF221A70FEF7C8FE484B4FF46D
:103DE00080329A610A244549424B1868FEF7D8FF91
:103DF000631E13F0FF04F6D10021424B19704020DE
:103E0000FFF7F2FE012814D03D4B4FF480329A6147
:103E1000384B18684562FEF7A9FE3A4B1878B0FA9D
:103E200080F0400902B070BD01F0B8FD314B186060
:103E3000CAE74FF4D5714820FFF7D6FE012818D005
:103E40000021E920FFF7D0FE012838D92D4B0122AF
:103E50001A70412646F2A81438E02849254B186804
:103E6000FEF79EFF04F108036B4403F8040C631C87
:103E7000DCB2032CF1D99DF80630012BC4D19DF89A
:103E80000730AA2BC0D142F6E0644CB14FF080411C
:103E9000E920FFF7A9FE012802D1013CA4B2F4E712
:103EA00001A8FFF75DFF0028AED1019B13F0804F02
:103EB00003D00C23134A1370A6E70423FAE7114B2F
:103EC00002221A70E926C5E7013CA4B22CB10021F8
:103ED0003046FFF789FE0028F6D11CB9094B0022B5
:103EE0001A7091E74FF400715020FFF77DFE002813
:103EF0008AD0F3E7040A0010A0860100080A001027
:103F000000C00920000A00102DE9F0411D462A4B8F
:103F10001B78002B4ED00646904613F0080F00D1B8
:103F20004902264B4FF000529A635120FFF75CFE86
:103F30000746002833D147F230542149214B1868F5
:103F4000FEF72EFFFE2805D0013CA4B2002CF4D1D0
:103F5000012725E008EB0504A4B2C4F5007402347F
:103F6000A4B2B8F1000F07D01549164B1868FEF738
:103F700017FFB8F10108F7D11149124B1868FEF785
:103F80000FFF30700136013DF6D10D490D4B186819
:103F9000FEF706FF013CA4B2002CF6D100E0012799
:103FA000064B4FF480329A614FF00052DA63384684
:103FB000BDE8F0810227FAE7000A001000C00920DE
:103FC000080A0010040A00100220704742780078A6
:103FD00040EA02207047C278837843EA022243789D
:103FE00043EA0223007840EA0320704702E000F829
:103FF000011B1A46531E002AF9D1704710B403461C
:1040000000201446013A34B113F8010B11F801CB2A
:10401000B0EB0C00F5D010BC70470000074B1A68DD
:10402000023880B2D388023B984204DA917813694F
:1040300001FB003070470020704700BF0C0A0010E1
:1040400008B51A30FFF7C2FF08BD000010B50446DE
:104050000B4B1B6800220280008901280BD0DA88F4
:1040600082420AD9608120B1FFF7D8FFE0600020CA
:1040700010BDD868FAE70120FAE70120F8E700BF91
:104080000C0A001038B50D4644680B22202120464A
:10409000FFF7ACFF28684FF0000C61464FF0080EA8
:1040A0004B1CDAB2435C202B0AD92F2B08D02E2BC5
:1040B00001D0E64511D8BEF1080F01D12E2B08D052
:1040C00002442A60202B8CBF00230123E3720020CE
:1040D00038BDF4464FF00B0E0FE013F0800F0ED1F9
:1040E000A3F16101C9B2192901D8203BDBB20CF15F
:1040F000010104F80C305FFA81FC1146D0E7803BE7
:104100000149CB5CECE700BFCCBE000070B502F10A
:104110000904C368002B38D00D461646002305E07D
:10412000A4460CF8010B0133DBB26446072B06D81A
:10413000E85C202803D00528F2D1E520F0E72B7AAF
:10414000202B11D0A4462E230CF8013B64460823F3
:104150000A2B09D8EA5C202A06D0A4460CF8012BC9
:104160000133DBB26446F3E7EB7A337205F11C00EE
:10417000FFF731FF306005F11800FFF727FFB0802F
:1041800005F11600FFF722FFF0800023237070BDB9
:1041900038B504460D4602234FF4FF72FFF7B4FE14
:1041A000D0B92046FFF712FF4AF65523984202D0B5
:1041B0000225284638BD0223362229462046FFF72D
:1041C000A3FE054650B92046FFF700FF44F2461310
:1041D0009842EED00125ECE70325EAE70125E8E760
:1041E000114B1B68012817D9DA88824216D91A7830
:1041F000022A01D00120704700B583B09968C2B28D
:104200000223520001EB102101A8FFF77DFE38B90F
:1042100001A8FFF7DBFE04E0012070470120704792
:10422000012003B05DF804FB0C0A001070B5184BB8
:104230001E6804880134A4B204B30546C368FBB108
:1042400014F00F0F06D10133C360408928B9B38839
:10425000A34217D92C80002070BDB378013B13EA2C
:104260001413F7D1FFF7BCFF01280DD9F38883425F
:104270000CD96881FFF7D2FEE860EBE70320EBE79B
:104280000320E9E70320E7E70120E5E70320E3E770
:104290000C0A001070B504460D46FFF7D7FE06461F
:1042A00038B1304670BD2046FFF7C0FF06460028F3
:1042B000F7D1228802F00F0220235201E16828463C
:1042C000FFF722FE002814BF01260026E9D12B7833
:1042D0005BB1EB7A13F0080FE5D10B226168284639
:1042E000FFF78CFE0028DED1DBE70326D9E730B5E7
:1042F00083B004460D46019201E001330193019B16
:104300001A78202AF9D02F2A1DD000232381019B5F
:104310001B781F2B1AD901A92046FFF7B3FE0346CD
:10432000D0B929462046FFF7B5FF0346A0B9626819
:10433000D27A8AB9EB7A13F0100F10D02846FFF723
:104340007FFE2081E7E701330193DEE72046FFF798
:104350007DFE034600222A70184603B030BD0323B9
:10436000FAE738B504460D46032204E02046FFF77D
:104370005DFF0246D0B9E168C1B1228802F00F02A8
:10438000202352012846FFF7BFFD002814BF012259
:1043900000220BD12B7843B1E97AE52BE6D02E2B06
:1043A000E4D011F0080FE1D100E003220AB10023AC
:1043B000E360104638BD00002DE9F0478AB004469E
:1043C000444B00221A60FFF7F9FC10F0010F76D180
:1043D000002101A8FFF7DCFE0546012856D0002782
:1043E000032D6AD0002D6FD124230D22394601A858
:1043F000FFF78AFD0646002868D10DF10D00FFF792
:10440000E5FD804620B90DF11B00FFF7E4FD804675
:104410009DF8070008FB00F80DF10500FFF7D6FD39
:104420000744A7609DF8049084F8029002A8FFF763
:10443000CDFD8246A0800DF10A00FFF7C7FD0546BD
:1044400020B90DF11700FFF7C6FD05460DF1050077
:10445000FFF7BCFD2B1AA3EB08034FEA1A12A3EBDC
:104460001A13B3FBF9F3991CE180A3F6F6734EF629
:10447000FE718B422CD8022323704744E760174417
:10448000276100236370134B1C6019E010234FF465
:10449000DF72002101A8FFF737FD70B99DF80830E1
:1044A0000BB900279CE703A8FFF795FD07460146D7
:1044B00001A8FFF76DFE054692E7012600E00226FF
:1044C00030460AB0BDE8F0870626F9E70126F7E78F
:1044D0000626F5E70C0A001030B591B0154B1C68A4
:1044E0000CB302460023637009AB0D9301A90CA81D
:1044F000FFF7FDFE054698B99DF80430ABB19DF875
:104500000F5015F0100512D101A8FFF799FDA083F7
:1045100008A8FFF760FDA0610023636101236370B9
:10452000284611B030BD0525FAE70325F8E7032535
:10453000F6E700BF0C0A00102DE9F0412D4B1C6876
:1045400000231360002C51D007469046637813F087
:10455000010F4DD0A6696369F61A8E4227D30E4625
:1045600025E0E08BFFF73CFE012830D9E083E08BAB
:10457000FFF754FD034670B32B4423626269C2F314
:104580000802C2F50075AE4200D235462B46216ABC
:104590003846FFF7B9FC10BB63692B446361761B97
:1045A000D8F800302B44C8F8003007B12F44D6B1FA
:1045B0006269C2F30803002BE0D1A378013BDBB2B0
:1045C00013EA5225D3D1002ACBD1A08BCCE700230C
:1045D0006370012008E000236370012004E00023E1
:1045E0006370012000E00020BDE8F0810520FBE7BA
:1045F0000420F9E70C0A0010104B1B68D3B110B56A
:104600008CB004460A4609AB436001A9FFF76FFE70
:1046100070B99DF8043043B19DF80F3013F0100FBE
:104620000AD001A8FFF70CFD20812046FFF70EFD00
:104630000CB010BD052070470320F9E70C0A0010EC
:10464000104B1B68E3B130B58DB004460D4609AB85
:10465000436089B101A9FFF784FE032800D068B93F
:104660002A4601A92046FFF751FD2046FFF7DEFD4F
:10467000032803D1002001E0FFF7E8FC0DB030BDB6
:10468000052070470C0A00104378212B12D0222BF2
:1046900016D0202B01D00020704707230B60002389
:1046A00004E01168C85C0749C8540133062BF8DDE3
:1046B00001207047034B136007230B6001207047F4
:1046C000012070472C0400107047000008B5054B0E
:1046D0001868FEF7A4FF00B908BD202000F061F9BA
:1046E000FAE700BF640A001038B504460C4B18689E
:1046F000FEF79FFF3F2800D838BD402209492046D9
:1047000000F09CF905460024AC42F5DA054B195D32
:10471000034B1868FEF75DFF0028EDD00134F3E786
:10472000600A0010100A001038B505460E4B1868D4
:10473000FEF775FF58B100243F2C0BDC0B492144D8
:10474000094B1868FEF757FF20B10134F4E700F079
:1047500028F901E0002C00DC38BD22460349284638
:1047600000F03CF9F8E700BF640A0010100A0010DE
:1047700008B500F0ABF908BD10B5204B1960204B0F
:10478000186000F003FA1F4800F0E0F81E4C2146C4
:10479000002000F0BFF82146802000F0BBF8402147
:1047A000002000F0A8F84021802000F0A4F8174A6B
:1047B0001749002000F0DCFA164800F05DFB164AAD
:1047C0001649012000F0D4FA0021812000F0A2F85F
:1047D0001349822000F09EF81249052000F09AF853
:1047E000114800F0C1F8202000F0DBF80F4B4FF02B
:1047F00080721A60012000F0CCF810BD600A001031
:10480000640A0010C9460000854C0000580A0010D8
:10481000354F00004CBF0000500A001089460000D0
:1048200029470000E9460000CD46000000E100E015
:10483000044BD3F8003230EA0303F9D1014BC3F83B
:104840000802704700C0005008B5064B3022C3F87C
:104850000822000440F4A060C3F810021020FFF703
:10486000E7FF08BD00C0005010B50C46FFF7ECFF95
:10487000240444F48074034BC3F810421020FFF763
:10488000D7FF10BD00C0005038B50446FFF7DCFF6D
:10489000240444F40074054DC5F810422020FFF7AD
:1048A000C7FFD5F81402C0B238BD00BF00C0005029
:1048B00008B50A4BD3F844224FF0010C0CFA00FC67
:1048C00042EA0C02C3F84422C3F84802C3F84C126F
:1048D0004FF48070FFF7ACFF08BD00BF00C0005070
:1048E00008B540F04000C0B219B10021FFF7BCFF8D
:1048F00008BD2021FAE710B5440004F01E0444EA84
:10490000D0142046FFF7D4FF01212046FFF7E8FF2F
:1049100010BD0000430003F01E0343EAD010094A13
:1049200042F81310084BD3F83422012101FA00F0A9
:104930001043C3F83402D3F8042242F00402C3F84F
:1049400004227047680A001000C00050044B186031
:10495000044AD2F8043243F00803C2F80432704724
:10496000A80A001000C00050044B1860044AD2F896
:10497000043243F00103C2F804327047AC0A00105D
:1049800000C0005008B540F08001D020FFF76CFF58
:1049900008BD08B5011E18BF0121FE20FFF764FF06
:1049A00008BD08B50146F320FFF75EFF08BD08B556
:1049B000430003F01E0343EAD010FFF765FF08BD74
:1049C00008B5430003F01E0343EAD010003918BFB6
:1049D000012140F04000FFF747FF08BD10B5034636
:1049E0001446400000F01E0040EAD3109B0003F084
:1049F0003C0343F00203104AC2F82832C2F82442B2
:104A00000DE0CA788B781B0443EA02634A7843EAD4
:104A1000022311F8042B1343074AC2F81C32064B39
:104A2000D3F8283213F0020FEBD1FFF70DFFFA2075
:104A3000FFF70AFF204610BD00C0005038B50346FE
:104A4000400000F01E0040EAD3109B0003F03C033E
:104A500043F00103184CC4F82832174BD3F8203226
:104A600013F4006FF9D013F4806F22D0C3F3090C54
:104A70000024234601E0240A013365469C450DDDF0
:104A80009E4613F0030F02D10B4CD4F818420029B4
:104A9000F1D09342EFDA01F80E40ECE7064B00222A
:104AA000C3F82822FFF7D0FEF220FFF7CDFE2846FC
:104AB00038BD4FF0FF35FAE700C0005008B5011EC1
:104AC00018BF0121D820FFF7CFFE08BD38B52B4B0A
:104AD000D3F8004214F0010F0CD00122C3F80822D1
:104AE000274B1B6833B1F520FFF7CEFE244B1B6824
:104AF00080B2984714F0080F08D114F0040F3BD08F
:104B00001E4B0422C3F80822002412E01B4B08228B
:104B1000C3F80822FE20FFF7B7FE10F01A0FECD002
:104B200000F01500174B1B68002BE6D09847E4E710
:104B300001341F2C20DC0123A340104AD2F830227C
:104B40001A42F5D00D4DC5F838322020FFF770FE1F
:104B5000D5F8141201F01F0104EBD4735B100A4A5C
:104B600052F82330002BE3D0C4F3430040EAC410D2
:104B700000F08F009847DBE738BD00BF00C0005051
:104B8000AC0A0010A80A0010680A001008B5214BF2
:104B90001A6922F440221A611A6942F480221A61C9
:104BA000DA6822F0405222F03002DA60DA6842F02D
:104BB000005242F01002DA605A6822F070525A60D5
:104BC0005A6842F0A0525A60134AD2F8C43043F0F7
:104BD0000043C2F8C430114B1A22C3F8F42F0F4B14
:104BE000D3F8F83F03F01A031A2BF8D10B4B00202F
:104BF000C3F804024FF0FF32C3F80822C3F82C02B6
:104C0000C3F83402C3F83822C3F84002FFF7C9FEE4
:104C1000012008BD00C0024000C00F4000C000508D
:104C200010B50378C3F34113034C54F823300BB190
:104C3000984710BD0020FCE7C80A001008B5012104
:104C40008020FFF7BDFE002300E00133072BFCDDD1
:104C500008BD000070B5094D2C68402CA8BF402449
:104C6000074E224631688020FFF7B8FE33682344A0
:104C700033602B681B1B2B6070BD00BFDC0A00106B
:104C8000E00A001038B5002862D10C4611F0040F7C
:104C900025D1324B1A68002A54DD314B19680020A7
:104CA000FFF7CCFE002845DB2D4A13680344136050
:104CB0002A4A1368181A106000284BD12948037833
:104CC000C3F34113284A52F82330254A1360274979
:104CD000FFF7A6FF002831D0FFF7BCFF3AE0214DD7
:104CE00008222946FFF7AAFE2A78C2F341111E4B7B
:104CF00053F821101A4B1960EB8818490B601B49B7
:104D00000B600BB1D30925D0154A18491548FFF798
:104D100087FF58B1134BDB88144A12689342A8BF2F
:104D200013460E4A1360FFF795FF13E02046FFF786
:104D300085FF0FE02046FFF781FF0BE02046FFF7DD
:104D40007DFF07E0002211461046FFF777FE01E0E5
:104D5000802800D038BDFFF77DFFFBE7DC0A00109C
:104D6000E00A0010B00A0010B80A0010D80A0010BB
:104D7000034B43F82010034B43F82020704700BF3B
:104D8000C80A0010B80A0010126843780A2B0AD02B
:104D90000B2B0DD00BB10020704713705370022302
:104DA0000B600120704700231370012008607047DA
:104DB000438813B90B600120704700207047000042
:104DC0002DE9F04130B10D468046144B1C68FF2799
:104DD0003E4605E0FFF772FE1CE0E77823781C44AE
:104DE0002378A3B16378042BF7D0052B03D0022BD3
:104DF000F4D16679F2E74645F0D1AF42EED123799E
:104E0000617943EA0121A078FFF775FDE6E701200B
:104E1000FFF754FE0120BDE8F08100BFE80A001052
:104E200038B515684378012B11D00C46032B18D0E8
:104E30000BB1002038BD0079FFF7B9FDC0F3400089
:104E4000287000236B70022323600120F2E743885F
:104E50000BB10020EEE700210079FFF7B1FD012042
:104E6000E8E743880BB10020E4E701210079FFF770
:104E7000A7FD0120DEE70000014B1860704700BF6E
:104E8000E80A001030B54FEA102EC5B20E49096885
:104E900000240EE01960BEF1020F03D00B781360FE
:104EA000012030BD8B78C97843EA01231360F7E70E
:104EB000014408780028F4D091F801C0F445F7D1F6
:104EC000A542E7D00134F3E7E80A001010B5044624
:104ED00010686378092B29D8DFE803F00528282813
:104EE000280C1128181E00230370437002230B6046
:104EF00001201CE0A078FFF745FD012017E01346D4
:104F00000A46A1886088FFF7BDFF10E0084B1B78B8
:104F10000370012008600AE00021A078FFF750FF2D
:104F200028B16288024B1A70012000E0002010BDF9
:104F3000E40A001070B504460D461646114B1B6876
:104F40000BB19847D8B9237803F01F03012B0AD07F
:104F5000022B0ED00BB1002070BD324629462046F0
:104F6000FFF7B4FFF8E7324629462046FFF70CFF6B
:104F7000F2E7324629462046FFF752FFECE70120D0
:104F8000EAE700BFEC0A001000230360838070474B
:104F90008038182810D8DFE800F00D0D0D1114141A
:104FA00017171A1D0F0F0F0F0F0F20230F0F0F0FC3
:104FB0000F0F26002A230B700020704700230B7070
:104FC000FAE732230B70F7E700230B70F4E71423A2
:104FD0000B70F1E708230B70EEE700230B70EBE793
:104FE00002230B70E8E703230B70E5E7002070470E
:104FF000024A136843F0020313607047F00A00107E
:10500000024A136843F0020313607047F00A00106D
:1050100070B504460E46154607E016F8011B2046FB
:1050200006F0A7FC013D0134A4B2002DF5D170BDFE
:1050300070B504460E46154607E0204606F097FC7C
:1050400006F8010B013D0134A4B2002DF5D170BD6D
:1050500010B50446C0F3470006F076FC204606F083
:1050600077FC10BD2DE9F04182B080460D46174611
:105070005608002403E0013E02350134E4B266B173
:1050800029884FF6FF739942F5D069782B7843EA67
:105090000121204606F058FCEDE717F0010F05D17D
:1050A000404606F055FC02B0BDE8F0812B788DF843
:1050B000043000238DF80530BDF80410204606F0BA
:1050C00043FCEDE708B5400806F03AFC08BDF8B52A
:1050D00004460E46174655080AE0204606F030FC06
:1050E0003070C0F307207070013D0134A4B2023665
:1050F000002DF2D117F0010F00D1F8BD204606F0C7
:105100001FFC3070F9E738B504460D4606F028FC60
:10511000207006F029FC6070032D00D038BD06F029
:1051200021FCA070FAE710B582B0044601A806F091
:105130001DFC04F108030DEB030414F8040C02B089
:1051400010BD000008B50348FFF71EFF06F0E6FBA0
:1051500008BD00BFF00A0010F0B583B00546144644
:10516000002313600378303B482B00F25E82DFE8B7
:1051700013F0490057005C025C025C025C025C02B6
:105180005C025C025C025C025C025C025C025C022F
:105190005C0272009000B8005C025C02BE005C021F
:1051A0005C025C025C025C025C025C025C025C020F
:1051B0005C02C700E200E700EC005C02F40046027B
:1051C0005C025C025C025C025C025C025C025C02EF
:1051D0005C02FD000B0116012D01340120015C026F
:1051E0005C025C025C025C025C025C025C025C02CF
:1051F0005C02570176019001C101D60105021A0235
:10520000AB013002012946D914232B7023680133E6
:10521000236010236B7023680133236000203BE080
:10522000012938D90346142203F8012B22680132E0
:105230002260A34A1068C5F801009188927999808C
:105240009A7123680733236010232B72236801337C
:105250002360002020E003291DD914230370266851
:105260000136266081784078FFF7C0FEB0F1FF3F3D
:1052700006D010236B7023680133236000200BE0FD
:10528000013626601123AB702368013323600020B0
:1052900002E0022902D8012003B0F0BD14230370FC
:1052A0002368013323600DF107014078FFF770FE9A
:1052B000B0F1FF3F0CD09DF807306B7023680133CD
:1052C00023601023AB702368013323600020E3E7E1
:1052D0002368013323601123AB70236801332360FB
:1052E000F4E71529D7D90130FFF782FE8CE7437820
:1052F00002338B42CFD803390230FFF781FE83E7B8
:105300000129C8D96F4B1B6813F0020F0BD114236E
:105310000370236801332360132343702368013330
:1053200023600020B8E706F0FAFAB0F1FF3F7FF4FF
:105330006BAF0320B0E70129ADD906F0F5FA63E7BA
:105340000129A8D906F0F8FA5EE70129A3D9437824
:10535000202B3FF459AF002068E103299BD9437803
:10536000827843EA0223574A93804DE7032992D972
:1053700081784378534E43EA0121B088FFF768FEF5
:10538000B3880233B3803FE7022984D94D4E417878
:10539000B08806F0EEFAB3880133B38034E703290E
:1053A0007FF679AF407806F0D8FAA87806F0D6FAFA
:1053B0002AE704297FF66FAF407806F0CEFAA87886
:1053C00006F0CCFAE87806F0CAFA1DE702297FF663
:1053D00062AF407806F0C0FA16E704297FF65BAFAB
:1053E0004378867846EA03260539B142FFF453AF85
:1053F000C378462B06D0452B0BD0324B9A881644E7
:105400009E8001E73246011D2E4B9888FFF72AFE49
:10541000F3E73246011D2B4B9888FFF7F9FDECE7C7
:1054200001297FF638AF142303702368013323600A
:10543000244EB088FFF746FEB3880233B38068700D
:10544000236801332360000AA870236801332360B6
:105450001023EB7023680133236000201CE701292F
:105460007FF619AF14230370236801332360154EB0
:10547000B08806F07CFA6870B3880133B380236883
:10548000013323601023AB702368013323600020B5
:1054900002E701297FF6FFAE142300F8013B2368E1
:1054A000013323600221FFF72EFE236802332360BD
:1054B0001023EB702368013323600020ECE600BF6B
:1054C000D4BF0000F00A001001297FF6E4AE1423D7
:1054D00000F8013B2368013323600321FFF713FE2B
:1054E00023680333236010232B7123680133236067
:1054F0000020D1E601297FF6CEAE14230370236885
:105500000133236006F036FA6870236801332360A4
:105510001023AB702368013323600020BCE604290C
:105520007FF6B9AE4378867846EA03260746142309
:1055300007F8013B236801332360C378462B0FD063
:10554000452B14D03C4A93883344938023683344DA
:1055500023601023BB5523680133236000209BE6A2
:1055600032463946344B9888FFF7B1FDEAE73246B8
:105570003946314B9888FFF75BFDE3E701297FF659
:105580008AAE142300F8013B23680133236006F040
:10559000CFF923680333236010232B712368013371
:1055A0002360002078E601297FF675AE142303708E
:1055B0002368013323600020FFF7B5FD687023687E
:1055C000013323601023AB70236801332360002074
:1055D00062E601297FF65FAE14230370236801336E
:1055E00023604078FFF79FFD6870236801332360D4
:1055F0001023AB7023680133236000204CE605299B
:105600007FF649AE142300F8013B23680133236081
:1056100006F0B2F968702368013323601023AB7081
:10562000236801332360002036E6022015232B7007
:105630002368013323602FE6F00A00100023136073
:105640007047000008B50248FDF7E9FFC0B208BD89
:105650001018001008B501460248FDF7CCFFC0B293
:1056600008BD00BF1018001000B583B00DF1070190
:105670000448FDF7C0FF0028F8D09DF8070003B0EC
:105680005DF804FB1018001010B5044606E0217800
:105690000448FDF79EFF0028F9D001342378002B41
:1056A000F5D110BD1C1A001010B504462146034860
:1056B000FDF78FFF0028F9D010BD00BF1C1A0010A5
:1056C00038B50C4C04F507752846FDF77BFF103400
:1056D0002046FDF777FF21462846FFF74DF840F2B8
:1056E000DC50FBF77BFC2846FDF7AAFF2046FDF7C0
:1056F000A7FF38BD0018001008B50248FDF785FD6A
:1057000008BD00BFA813001008B50248FDF77DFDD5
:1057100008BD00BF500F001008B50248FDF775FD29
:1057200008BD00BFF80A001008B501460148FDF7A2
:1057300066FD08BDA813001008B501460148FDF735
:105740005EFD08BD500F001008B501460148FDF789
:1057500056FD08BDF80A001008B50248FDF720FD07
:1057600008BD00BFA813001008B50248FDF718FDDA
:1057700008BD00BF500F001008B50248FDF710FD2E
:1057800008BD00BFF80A001008B501460148FDF742
:105790001FFD08BDA813001008B501460148FDF71C
:1057A00017FD08BD500F001008B501460148FDF770
:1057B0000FFD08BDF80A001008B501460148FDF7C5
:1057C000F7FC08BDA813001008B501460148FDF715
:1057D000EFFC08BD500F001008B501460148FDF769
:1057E000E7FC08BDF80A001008B50248FDF74EFCBA
:1057F00008BD00BFA813001008B50248FDF746FC1D
:1058000008BD00BF500F001008B50248FDF73EFC70
:1058100008BD00BFF80A001000286AD008B503468A
:1058200001F00F02042A26D8DFE802F00326173B16
:105830005000304AC3F82C242F4AC3F834242F4A8E
:10584000C3F838242E4AC3F830242E4AC3F83C2427
:105850002D4AC3F8402400221A71C1F313129A6032
:10586000C1F301721A738A0F5A73C1F303619973FA
:10587000D3F82C34984708BD244AC3F82C24244A72
:10588000C3F83424234AC3F83824234AC3F8302405
:10589000224AC3F83C24224AC3F8402401221A7148
:1058A000DBE7204AC3F82C241F4AC3F834241F4ADC
:1058B000C3F838241E4AC3F830241E4AC3F83C24D7
:1058C0001D4AC3F8402403221A71C6E71B4AC3F8D5
:1058D0002C241B4AC3F834241A4AC3F838241A4A21
:1058E000C3F83024194AC3F83C24194AC3F84024A9
:1058F000B3E7704709580000D9570000A9570000C6
:10590000795700004957000019570000F957000067
:10591000C957000099570000695700003957000027
:1059200009570000E9570000B957000089570000E7
:105930005957000029570000F9560000C1560000D1
:10594000A95600008956000069560000555600000F
:105950004556000008B506490648FFF75DFF0649B1
:105960000648FFF759FF04210548FFF755FF08BD1A
:1059700001201C48500F001003201C48A8130010E1
:105980000018001000487047500F00100048704782
:10599000A813001008B5FBF747FB08BD0048704787
:1059A000340400107047000008B56420FBF778FC51
:1059B000FBF756FC4FF04020FBF7CAFDFBF7DAFA85
:1059C000FFF7C8FF0020FCF755FC0120FBF79AFF0A
:1059D0000120FBF79FFE074A136E43F080631366B6
:1059E000054AD36923F44013D36100F0F5FA00208F
:1059F00008BD00BF00C0092000C00240704710B5BC
:105A00000446D0F8F832DB6808469847D4F8F832F4
:105A10009B680A209847012010BD000038B5044655
:105A200089B10D4690F80031402B0CD00B681B68F3
:105A300001462846984794F800315A1C84F8002102
:105A400044F8235038BD02492046FFF7D8FFF9E754
:105A5000DCBF000010B50C46D0F8F8329B68C8B225
:105A60009847204610BD00002DE9F8430D780A2D17
:105A700051D004460E4607460D2D4ED015B9284686
:105A8000BDE8F88300F5C47949463046FDF7E9FDE5
:105A9000C4F8B00109281DDCD4F88881B8F1000FE2
:105AA00029D0002594F80031AB4226D93B6833B3A6
:105AB00059684046FDF70BFE18B10135EDB20437C9
:105AC000F0E7386803685B684A46D4F8B011984735
:105AD000054600E00125402200213046FDF7F6FF93
